{
  "contractName": "Certification",
  "abi": [
    {
      "inputs": [],
      "stateMutability": "nonpayable",
      "type": "constructor"
    },
    {
      "inputs": [
        {
          "internalType": "uint256",
          "name": "value",
          "type": "uint256"
        },
        {
          "internalType": "uint256",
          "name": "length",
          "type": "uint256"
        }
      ],
      "name": "StringsInsufficientHexLength",
      "type": "error"
    },
    {
      "anonymous": false,
      "inputs": [
        {
          "indexed": false,
          "internalType": "bool",
          "name": "message",
          "type": "bool"
        },
        {
          "indexed": false,
          "internalType": "uint256",
          "name": "timestamp",
          "type": "uint256"
        }
      ],
      "name": "CertificateGenerated",
      "type": "event"
    },
    {
      "inputs": [
        {
          "internalType": "string",
          "name": "_role",
          "type": "string"
        },
        {
          "internalType": "string",
          "name": "_instituteName",
          "type": "string"
        },
        {
          "internalType": "string",
          "name": "_email",
          "type": "string"
        },
        {
          "internalType": "string",
          "name": "_password",
          "type": "string"
        }
      ],
      "name": "createUser",
      "outputs": [
        {
          "internalType": "bool",
          "name": "",
          "type": "bool"
        }
      ],
      "stateMutability": "nonpayable",
      "type": "function"
    },
    {
      "inputs": [
        {
          "internalType": "string",
          "name": "_doc_hash",
          "type": "string"
        },
        {
          "internalType": "string",
          "name": "_issuedTo",
          "type": "string"
        },
        {
          "internalType": "string",
          "name": "_courseName",
          "type": "string"
        }
      ],
      "name": "generateCertificate",
      "outputs": [
        {
          "internalType": "bool",
          "name": "",
          "type": "bool"
        }
      ],
      "stateMutability": "nonpayable",
      "type": "function"
    },
    {
      "inputs": [
        {
          "internalType": "string",
          "name": "_hash",
          "type": "string"
        }
      ],
      "name": "getAndVerifyCertificateData",
      "outputs": [
        {
          "internalType": "address",
          "name": "",
          "type": "address"
        },
        {
          "internalType": "string",
          "name": "",
          "type": "string"
        },
        {
          "internalType": "string",
          "name": "",
          "type": "string"
        },
        {
          "internalType": "string",
          "name": "",
          "type": "string"
        },
        {
          "internalType": "string",
          "name": "",
          "type": "string"
        },
        {
          "internalType": "uint256",
          "name": "",
          "type": "uint256"
        },
        {
          "internalType": "bool",
          "name": "",
          "type": "bool"
        }
      ],
      "stateMutability": "view",
      "type": "function",
      "constant": true
    },
    {
      "inputs": [
        {
          "internalType": "address",
          "name": "_accountAddress",
          "type": "address"
        }
      ],
      "name": "getAccountDetails",
      "outputs": [
        {
          "internalType": "string",
          "name": "userAddress",
          "type": "string"
        },
        {
          "internalType": "string",
          "name": "instituteName",
          "type": "string"
        },
        {
          "internalType": "string",
          "name": "email",
          "type": "string"
        },
        {
          "internalType": "string",
          "name": "pass",
          "type": "string"
        },
        {
          "internalType": "bytes32",
          "name": "role",
          "type": "bytes32"
        }
      ],
      "stateMutability": "view",
      "type": "function",
      "constant": true
    }
  ],
  "bytecode": "0x608060405234801561000f575f80fd5b50335f806101000a81548173ffffffffffffffffffffffffffffffffffffffff021916908373ffffffffffffffffffffffffffffffffffffffff1602179055506122628061005c5f395ff3fe608060405234801561000f575f80fd5b506004361061004a575f3560e01c80632aceb5341461004e5780636f7fcddb1461008257806374866d53146100b2578063bb207f41146100e2575b5f80fd5b610068600480360381019061006391906113c6565b610118565b604051610079959493929190611493565b60405180910390f35b61009c6004803603810190610097919061162c565b610528565b6040516100a9919061171a565b60405180910390f35b6100cc60048036038101906100c79190611733565b610850565b6040516100d9919061171a565b60405180910390f35b6100fc60048036038101906100f791906117d7565b610c3e565b60405161010f9796959493929190611845565b60405180910390f35b6060806060805f805f9054906101000a900473ffffffffffffffffffffffffffffffffffffffff1673ffffffffffffffffffffffffffffffffffffffff163373ffffffffffffffffffffffffffffffffffffffff16146101ad576040517f08c379a00000000000000000000000000000000000000000000000000000000081526004016101a49061193e565b60405180910390fd5b60025f8773ffffffffffffffffffffffffffffffffffffffff1673ffffffffffffffffffffffffffffffffffffffff1681526020019081526020015f205f0160025f8873ffffffffffffffffffffffffffffffffffffffff1673ffffffffffffffffffffffffffffffffffffffff1681526020019081526020015f2060010160025f8973ffffffffffffffffffffffffffffffffffffffff1673ffffffffffffffffffffffffffffffffffffffff1681526020019081526020015f2060020160025f8a73ffffffffffffffffffffffffffffffffffffffff1673ffffffffffffffffffffffffffffffffffffffff1681526020019081526020015f2060030160025f8b73ffffffffffffffffffffffffffffffffffffffff1673ffffffffffffffffffffffffffffffffffffffff1681526020019081526020015f20600401548480546102f990611989565b80601f016020809104026020016040519081016040528092919081815260200182805461032590611989565b80156103705780601f1061034757610100808354040283529160200191610370565b820191905f5260205f20905b81548152906001019060200180831161035357829003601f168201915b5050505050945083805461038390611989565b80601f01602080910402602001604051908101604052809291908181526020018280546103af90611989565b80156103fa5780601f106103d1576101008083540402835291602001916103fa565b820191905f5260205f20905b8154815290600101906020018083116103dd57829003601f168201915b5050505050935082805461040d90611989565b80601f016020809104026020016040519081016040528092919081815260200182805461043990611989565b80156104845780601f1061045b57610100808354040283529160200191610484565b820191905f5260205f20905b81548152906001019060200180831161046757829003601f168201915b5050505050925081805461049790611989565b80601f01602080910402602001604051908101604052809291908181526020018280546104c390611989565b801561050e5780601f106104e55761010080835404028352916020019161050e565b820191905f5260205f20905b8154815290600101906020018083116104f157829003601f168201915b505050505091509450945094509450945091939590929450565b5f803390505f8054906101000a900473ffffffffffffffffffffffffffffffffffffffff1673ffffffffffffffffffffffffffffffffffffffff168173ffffffffffffffffffffffffffffffffffffffff16036105ba576040517f08c379a00000000000000000000000000000000000000000000000000000000081526004016105b190611a29565b60405180910390fd5b5f866040516020016105cc9190611a81565b6040516020818303038152906040528051906020012090508060025f8473ffffffffffffffffffffffffffffffffffffffff1673ffffffffffffffffffffffffffffffffffffffff1681526020019081526020015f206004015403610666576040517f08c379a000000000000000000000000000000000000000000000000000000000815260040161065d90611b53565b60405180910390fd5b61066f826110a3565b60025f8473ffffffffffffffffffffffffffffffffffffffff1673ffffffffffffffffffffffffffffffffffffffff1681526020019081526020015f205f0190816106ba9190611d0e565b508560025f8473ffffffffffffffffffffffffffffffffffffffff1673ffffffffffffffffffffffffffffffffffffffff1681526020019081526020015f2060010190816107089190611d0e565b508460025f8473ffffffffffffffffffffffffffffffffffffffff1673ffffffffffffffffffffffffffffffffffffffff1681526020019081526020015f2060020190816107569190611d0e565b508360025f8473ffffffffffffffffffffffffffffffffffffffff1673ffffffffffffffffffffffffffffffffffffffff1681526020019081526020015f2060030190816107a49190611d0e565b508060025f8473ffffffffffffffffffffffffffffffffffffffff1673ffffffffffffffffffffffffffffffffffffffff1681526020019081526020015f2060040181905550600160025f8473ffffffffffffffffffffffffffffffffffffffff1673ffffffffffffffffffffffffffffffffffffffff1681526020019081526020015f206005015f6101000a81548160ff021916908315150217905550600192505050949350505050565b5f803390507f114e74f6ea3bd819998f78687bfcb11b140da08e9b7d222fa9c1f1ba1f2aa12260025f8373ffffffffffffffffffffffffffffffffffffffff1673ffffffffffffffffffffffffffffffffffffffff1681526020019081526020015f2060040154146108f7576040517f08c379a00000000000000000000000000000000000000000000000000000000081526004016108ee90611e4d565b60405180910390fd5b5f610901866110d0565b90505f602060ff1611610949576040517f08c379a000000000000000000000000000000000000000000000000000000000815260040161094090611edb565b60405180910390fd5b6109ed60015f8381526020019081526020015f20600101805461096b90611989565b80601f016020809104026020016040519081016040528092919081815260200182805461099790611989565b80156109e25780601f106109b9576101008083540402835291602001916109e2565b820191905f5260205f20905b8154815290600101906020018083116109c557829003601f168201915b5050505050876110f6565b15610a2d576040517f08c379a0000000000000000000000000000000000000000000000000000000008152600401610a2490611f69565b60405180910390fd5b5f8683604051602001610a41929190611fcc565b60405160208183030381529060405290507f3ffc2664c3ccfb61170d0462092dc375b35e59f94e11b204250eb28083e14b92600142604051610a84929190611ff3565b60405180910390a16040518060e0016040528082815260200188815260200187815260200160025f8673ffffffffffffffffffffffffffffffffffffffff1673ffffffffffffffffffffffffffffffffffffffff1681526020019081526020015f205f018054610af390611989565b80601f0160208091040260200160405190810160405280929190818152602001828054610b1f90611989565b8015610b6a5780601f10610b4157610100808354040283529160200191610b6a565b820191905f5260205f20905b815481529060010190602001808311610b4d57829003601f168201915b505050505081526020018681526020014281526020016001151581525060015f8481526020019081526020015f205f820151815f019081610bab9190611d0e565b506020820151816001019081610bc19190611d0e565b506040820151816002019081610bd79190611d0e565b506060820151816003019081610bed9190611d0e565b506080820151816004019081610c039190611d0e565b5060a0820151816005015560c0820151816006015f6101000a81548160ff021916908315150217905550905050600193505050509392505050565b5f6060806060805f805f3390507f0ce23c3e399818cfee81a7ab0880f714e53d7672b08df0fa62f2843416e1ea0960025f8373ffffffffffffffffffffffffffffffffffffffff1673ffffffffffffffffffffffffffffffffffffffff1681526020019081526020015f206004015414610ced576040517f08c379a0000000000000000000000000000000000000000000000000000000008152600401610ce49061208a565b60405180910390fd5b5f610cf78a6110d0565b905060015f8281526020019081526020015f206006015f9054906101000a900460ff16610d59576040517f08c379a0000000000000000000000000000000000000000000000000000000008152600401610d50906120f2565b60405180910390fd5b5f60015f8381526020019081526020015f206040518060e00160405290815f82018054610d8590611989565b80601f0160208091040260200160405190810160405280929190818152602001828054610db190611989565b8015610dfc5780601f10610dd357610100808354040283529160200191610dfc565b820191905f5260205f20905b815481529060010190602001808311610ddf57829003601f168201915b50505050508152602001600182018054610e1590611989565b80601f0160208091040260200160405190810160405280929190818152602001828054610e4190611989565b8015610e8c5780601f10610e6357610100808354040283529160200191610e8c565b820191905f5260205f20905b815481529060010190602001808311610e6f57829003601f168201915b50505050508152602001600282018054610ea590611989565b80601f0160208091040260200160405190810160405280929190818152602001828054610ed190611989565b8015610f1c5780601f10610ef357610100808354040283529160200191610f1c565b820191905f5260205f20905b815481529060010190602001808311610eff57829003601f168201915b50505050508152602001600382018054610f3590611989565b80601f0160208091040260200160405190810160405280929190818152602001828054610f6190611989565b8015610fac5780601f10610f8357610100808354040283529160200191610fac565b820191905f5260205f20905b815481529060010190602001808311610f8f57829003601f168201915b50505050508152602001600482018054610fc590611989565b80601f0160208091040260200160405190810160405280929190818152602001828054610ff190611989565b801561103c5780601f106110135761010080835404028352916020019161103c565b820191905f5260205f20905b81548152906001019060200180831161101f57829003601f168201915b5050505050815260200160058201548152602001600682015f9054906101000a900460ff16151515158152505090508281602001518260400151836060015184608001518560a0015160019950995099509950995099509950505050919395979092949650565b60606110c98273ffffffffffffffffffffffffffffffffffffffff16601460ff1661111d565b9050919050565b5f808290505f8151036110e8575f801b9150506110f1565b60208301519150505b919050565b5f81518351148015611115575081805190602001208380519060200120145b905092915050565b60605f8390505f6002846002611133919061213d565b61113d919061217e565b67ffffffffffffffff81111561115657611155611508565b5b6040519080825280601f01601f1916602001820160405280156111885781602001600182028036833780820191505090505b5090507f3000000000000000000000000000000000000000000000000000000000000000815f815181106111bf576111be6121b1565b5b60200101907effffffffffffffffffffffffffffffffffffffffffffffffffffffffffffff191690815f1a9053507f780000000000000000000000000000000000000000000000000000000000000081600181518110611222576112216121b1565b5b60200101907effffffffffffffffffffffffffffffffffffffffffffffffffffffffffffff191690815f1a9053505f6001856002611260919061213d565b61126a919061217e565b90505b6001811115611309577f3031323334353637383961626364656600000000000000000000000000000000600f8416601081106112ac576112ab6121b1565b5b1a60f81b8282815181106112c3576112c26121b1565b5b60200101907effffffffffffffffffffffffffffffffffffffffffffffffffffffffffffff191690815f1a905350600483901c925080611302906121de565b905061126d565b505f82146113505784846040517fe22e27eb000000000000000000000000000000000000000000000000000000008152600401611347929190612205565b60405180910390fd5b809250505092915050565b5f604051905090565b5f80fd5b5f80fd5b5f73ffffffffffffffffffffffffffffffffffffffff82169050919050565b5f6113958261136c565b9050919050565b6113a58161138b565b81146113af575f80fd5b50565b5f813590506113c08161139c565b92915050565b5f602082840312156113db576113da611364565b5b5f6113e8848285016113b2565b91505092915050565b5f81519050919050565b5f82825260208201905092915050565b5f5b8381101561142857808201518184015260208101905061140d565b5f8484015250505050565b5f601f19601f8301169050919050565b5f61144d826113f1565b61145781856113fb565b935061146781856020860161140b565b61147081611433565b840191505092915050565b5f819050919050565b61148d8161147b565b82525050565b5f60a0820190508181035f8301526114ab8188611443565b905081810360208301526114bf8187611443565b905081810360408301526114d38186611443565b905081810360608301526114e78185611443565b90506114f66080830184611484565b9695505050505050565b5f80fd5b5f80fd5b7f4e487b71000000000000000000000000000000000000000000000000000000005f52604160045260245ffd5b61153e82611433565b810181811067ffffffffffffffff8211171561155d5761155c611508565b5b80604052505050565b5f61156f61135b565b905061157b8282611535565b919050565b5f67ffffffffffffffff82111561159a57611599611508565b5b6115a382611433565b9050602081019050919050565b828183375f83830152505050565b5f6115d06115cb84611580565b611566565b9050828152602081018484840111156115ec576115eb611504565b5b6115f78482856115b0565b509392505050565b5f82601f83011261161357611612611500565b5b81356116238482602086016115be565b91505092915050565b5f805f806080858703121561164457611643611364565b5b5f85013567ffffffffffffffff81111561166157611660611368565b5b61166d878288016115ff565b945050602085013567ffffffffffffffff81111561168e5761168d611368565b5b61169a878288016115ff565b935050604085013567ffffffffffffffff8111156116bb576116ba611368565b5b6116c7878288016115ff565b925050606085013567ffffffffffffffff8111156116e8576116e7611368565b5b6116f4878288016115ff565b91505092959194509250565b5f8115159050919050565b61171481611700565b82525050565b5f60208201905061172d5f83018461170b565b92915050565b5f805f6060848603121561174a57611749611364565b5b5f84013567ffffffffffffffff81111561176757611766611368565b5b611773868287016115ff565b935050602084013567ffffffffffffffff81111561179457611793611368565b5b6117a0868287016115ff565b925050604084013567ffffffffffffffff8111156117c1576117c0611368565b5b6117cd868287016115ff565b9150509250925092565b5f602082840312156117ec576117eb611364565b5b5f82013567ffffffffffffffff81111561180957611808611368565b5b611815848285016115ff565b91505092915050565b6118278161138b565b82525050565b5f819050919050565b61183f8161182d565b82525050565b5f60e0820190506118585f83018a61181e565b818103602083015261186a8189611443565b9050818103604083015261187e8188611443565b905081810360608301526118928187611443565b905081810360808301526118a68186611443565b90506118b560a0830185611836565b6118c260c083018461170b565b98975050505050505050565b7f4f6e6c792061646d696e20697320616c6c6f77656420746f20676574206163635f8201527f6f756e742064657461696c730000000000000000000000000000000000000000602082015250565b5f611928602c836113fb565b9150611933826118ce565b604082019050919050565b5f6020820190508181035f8301526119558161191c565b9050919050565b7f4e487b71000000000000000000000000000000000000000000000000000000005f52602260045260245ffd5b5f60028204905060018216806119a057607f821691505b6020821081036119b3576119b261195c565b5b50919050565b7f596f7520617265206e6f7420617574686f726973656420746f206368616e67655f8201527f207468652061646d696e20726f6c650000000000000000000000000000000000602082015250565b5f611a13602f836113fb565b9150611a1e826119b9565b604082019050919050565b5f6020820190508181035f830152611a4081611a07565b9050919050565b5f81905092915050565b5f611a5b826113f1565b611a658185611a47565b9350611a7581856020860161140b565b80840191505092915050565b5f611a8c8284611a51565b915081905092915050565b7f546865206163636f756e742068617320616c7265616479206265656e206173735f8201527f69676e6564206120726f6c65212120436f6e74616374207468652061646d696e60208201527f20636f6d70616e7920666f72206368616e67696e67206f72207265766f6b696e60408201527f6720726f6c650000000000000000000000000000000000000000000000000000606082015250565b5f611b3d6066836113fb565b9150611b4882611a97565b608082019050919050565b5f6020820190508181035f830152611b6a81611b31565b9050919050565b5f819050815f5260205f209050919050565b5f6020601f8301049050919050565b5f82821b905092915050565b5f60088302611bcd7fffffffffffffffffffffffffffffffffffffffffffffffffffffffffffffffff82611b92565b611bd78683611b92565b95508019841693508086168417925050509392505050565b5f819050919050565b5f611c12611c0d611c088461182d565b611bef565b61182d565b9050919050565b5f819050919050565b611c2b83611bf8565b611c3f611c3782611c19565b848454611b9e565b825550505050565b5f90565b611c53611c47565b611c5e818484611c22565b505050565b5b81811015611c8157611c765f82611c4b565b600181019050611c64565b5050565b601f821115611cc657611c9781611b71565b611ca084611b83565b81016020851015611caf578190505b611cc3611cbb85611b83565b830182611c63565b50505b505050565b5f82821c905092915050565b5f611ce65f1984600802611ccb565b1980831691505092915050565b5f611cfe8383611cd7565b9150826002028217905092915050565b611d17826113f1565b67ffffffffffffffff811115611d3057611d2f611508565b5b611d3a8254611989565b611d45828285611c85565b5f60209050601f831160018114611d76575f8415611d64578287015190505b611d6e8582611cf3565b865550611dd5565b601f198416611d8486611b71565b5f5b82811015611dab57848901518255600182019150602085019450602081019050611d86565b86831015611dc85784890151611dc4601f891682611cd7565b8355505b6001600288020188555050505b505050505050565b7f4572726f723a204f6e6c7920697373756572732063616e2067656e65726174655f8201527f206365727469666963617465732e000000000000000000000000000000000000602082015250565b5f611e37602e836113fb565b9150611e4282611ddd565b604082019050919050565b5f6020820190508181035f830152611e6481611e2b565b9050919050565b7f4572726f723a20446f63756d656e7420686173682063616e6e6f7420626520655f8201527f6d70747921212100000000000000000000000000000000000000000000000000602082015250565b5f611ec56027836113fb565b9150611ed082611e6b565b604082019050919050565b5f6020820190508181035f830152611ef281611eb9565b9050919050565b7f4572726f723a2043657274696669636174652077697468207468652073616d655f8201527f206861736820616c726561647920657869737473210000000000000000000000602082015250565b5f611f536035836113fb565b9150611f5e82611ef9565b604082019050919050565b5f6020820190508181035f830152611f8081611f47565b9050919050565b5f8160601b9050919050565b5f611f9d82611f87565b9050919050565b5f611fae82611f93565b9050919050565b611fc6611fc18261138b565b611fa4565b82525050565b5f611fd78285611a51565b9150611fe38284611fb5565b6014820191508190509392505050565b5f6040820190506120065f83018561170b565b6120136020830184611836565b9392505050565b7f4572726f723a204f6e6c79207665726966696572732063616e206163636573735f8201527f20636572746966696361746520646174612e0000000000000000000000000000602082015250565b5f6120746032836113fb565b915061207f8261201a565b604082019050919050565b5f6020820190508181035f8301526120a181612068565b9050919050565b7f4572726f723a204e6f207375636820646f63756d656e74206578697374732e005f82015250565b5f6120dc601f836113fb565b91506120e7826120a8565b602082019050919050565b5f6020820190508181035f830152612109816120d0565b9050919050565b7f4e487b71000000000000000000000000000000000000000000000000000000005f52601160045260245ffd5b5f6121478261182d565b91506121528361182d565b92508282026121608161182d565b9150828204841483151761217757612176612110565b5b5092915050565b5f6121888261182d565b91506121938361182d565b92508282019050808211156121ab576121aa612110565b5b92915050565b7f4e487b71000000000000000000000000000000000000000000000000000000005f52603260045260245ffd5b5f6121e88261182d565b91505f82036121fa576121f9612110565b5b600182039050919050565b5f6040820190506122185f830185611836565b6122256020830184611836565b939250505056fea26469706673582212209c89dd273af71a5093ea75bf673c2491de7769d8be9d6a99fa8f2008a562f59e64736f6c63430008150033",
  "immutableReferences": {},
  "source": "// SPDX-License-Identifier: MIT\r\npragma solidity 0.8.21;\r\n\r\nimport \"@openzeppelin/contracts/utils/Strings.sol\";\r\nimport \"@chainlink/contracts/src/v0.8/Chainlink.sol\";\r\n\r\ncontract Certification {\r\n    using Strings for string;\r\n    bytes32 private constant ISSUER_ROLE = keccak256(\"ISSUER_ROLE\");\r\n    bytes32 private constant VERIFIER_ROLE = keccak256(\"VERIFIER_ROLE\");\r\n\r\n    address private admin;\r\n\r\n    constructor() {\r\n        admin = msg.sender;\r\n    }\r\n\r\n    struct Certificate {\r\n        string doc_Id;\r\n        string doc_Hash;\r\n        string issuedTo;\r\n        string issuedBy;\r\n        string course_name;\r\n        uint256 timestamp;\r\n        bool auth;\r\n    }\r\n\r\n    struct Account {\r\n        string useraddress;\r\n        string instituteName;\r\n        string email;\r\n        string password;\r\n        bytes32 role;\r\n        bool user;\r\n    }\r\n\r\n    mapping(bytes32 hash => Certificate) private certificates;\r\n    mapping(address => Account) private users;\r\n\r\n    event CertificateGenerated(bool message, uint256 timestamp);\r\n\r\n    function createUser(\r\n        string memory _role,\r\n        string memory _instituteName,\r\n        string memory _email,\r\n        string memory _password\r\n    ) public returns (bool) {\r\n        address user_address = msg.sender;\r\n        require(\r\n            user_address != admin,\r\n            \"You are not authorised to change the admin role\"\r\n        );\r\n        bytes32 Role = keccak256(abi.encodePacked(_role));\r\n        require(\r\n            users[user_address].role != Role,\r\n            \"The account has already been assigned a role!! Contact the admin company for changing or revoking role\"\r\n        );\r\n        users[user_address].useraddress = Strings.toHexString(user_address);\r\n        users[user_address].instituteName = _instituteName;\r\n        users[user_address].email = _email;\r\n        users[user_address].password = _password;\r\n        users[user_address].role = Role;\r\n        users[user_address].user = true;\r\n        return true;\r\n    }\r\n\r\n    function stringToByteConversion(\r\n        string memory input\r\n    ) private pure returns (bytes32 result) {\r\n        bytes memory temp = bytes(input);\r\n        if (temp.length == 0) {\r\n            return 0x0;\r\n        }\r\n        assembly {\r\n            result := mload(add(input, 32))\r\n        }\r\n    }\r\n\r\n    function generateCertificate(\r\n        string memory _doc_hash,\r\n        string memory _issuedTo,\r\n        string memory _courseName\r\n    ) public returns (bool) {\r\n        address user_address = msg.sender;\r\n        require(\r\n            users[user_address].role == ISSUER_ROLE,\r\n            \"Error: Only issuers can generate certificates.\"\r\n        );\r\n\r\n        bytes32 hash = stringToByteConversion(_doc_hash);\r\n\r\n        require(hash.length > 0, \"Error: Document hash cannot be empty!!!\");\r\n        require(\r\n            !Strings.equal(certificates[hash].doc_Hash, _doc_hash),\r\n            \"Error: Certificate with the same hash already exists!\"\r\n        );\r\n\r\n        string memory doc_Id = string(\r\n            abi.encodePacked(_doc_hash, user_address)\r\n        );\r\n\r\n        emit CertificateGenerated(true, block.timestamp);\r\n        certificates[hash] = Certificate(\r\n            doc_Id,\r\n            _doc_hash,\r\n            _issuedTo,\r\n            users[user_address].useraddress,\r\n            _courseName,\r\n            block.timestamp,\r\n            true\r\n        );\r\n        return true;\r\n    }\r\n\r\n    function getAndVerifyCertificateData(\r\n        string memory _hash\r\n    )\r\n        public\r\n        view\r\n        returns (\r\n            address,\r\n            string memory,\r\n            string memory,\r\n            string memory,\r\n            string memory,\r\n            uint256,\r\n            bool\r\n        )\r\n    {\r\n        address user_address = msg.sender;\r\n        require(\r\n            users[user_address].role == VERIFIER_ROLE,\r\n            \"Error: Only verifiers can access certificate data.\"\r\n        );\r\n\r\n        bytes32 hash = stringToByteConversion(_hash);\r\n\r\n        require(certificates[hash].auth, \"Error: No such document exists.\");\r\n\r\n        Certificate memory temp = certificates[hash];\r\n        return (\r\n            user_address,\r\n            temp.doc_Hash,\r\n            temp.issuedTo,\r\n            temp.issuedBy,\r\n            temp.course_name,\r\n            temp.timestamp,\r\n            true\r\n        );\r\n    }\r\n\r\n    function getAccountDetails(\r\n        address _accountAddress\r\n    )\r\n        public\r\n        view\r\n        returns (\r\n            string memory userAddress,\r\n            string memory instituteName,\r\n            string memory email,\r\n            string memory pass,\r\n            bytes32 role\r\n        )\r\n    {\r\n        require(\r\n            msg.sender == admin,\r\n            \"Only admin is allowed to get account details\"\r\n        );\r\n        return (\r\n            users[_accountAddress].useraddress,\r\n            users[_accountAddress].instituteName,\r\n            users[_accountAddress].email,\r\n            users[_accountAddress].password,\r\n            users[_accountAddress].role\r\n        );\r\n    }\r\n}\r\n",
  "sourcePath": "S:\\DocX\\contracts\\Contract.sol",
  "compiler": {
    "name": "solc",
    "version": "0.8.21+commit.d9974bed.Emscripten.clang"
  },
  "schemaVersion": "3.4.16",
  "updatedAt": "2024-02-13T17:29:31.961Z",
  "networkType": "ethereum",
  "devdoc": {
    "errors": {
      "StringsInsufficientHexLength(uint256,uint256)": [
        {
          "details": "The `value` string doesn't fit in the specified `length`."
        }
      ]
    },
    "kind": "dev",
    "methods": {},
    "version": 1
  },
  "userdoc": {
    "kind": "user",
    "methods": {},
    "version": 1
  }
}